S015000066696E616C5F70726F6A6563742E73726563AF
S11300000C942A000C9447000C9447000C9447006D
S11300100C9447000C9447000C9447000C94470040
S11300200C9447000C9447000C9447000C94470030
S11300300C9447000C9447000C9447000C94470020
S11300400C9447000C9447000C9447000C94470010
S11300500C94470011241FBECFE5D8E0DEBFCDBF0E
S113006012E0A0E6B0E0E4E3F3E202C005900D92F2
S1130070A435B107D9F722E0A4E5B2E001C01D928E
S1130080AC35B207E1F70E9449000C9498110C9426
S11300900000CF93DF93CDB7DEB764970FB6F89423
S11300A0DEBF0FBECDBF0E942E0E0E945F0C0E94C9
S11300B0790A0E943B0F0E94140F0E940F0E8CE0DD
S11300C090E00E94390F81E090E090935502809374
S11300D0540200E010E089E290E00E94F90E8530BD
S11300E009F0EBC10E948A0A8823E1F30E94C10C43
S11300F080E690E00E949F0C60E081E00E94B20CD8
S113010089E690E00E949F0C0E948A0A8823E1F30A
S11301100E948A0A8B3209F03CC10E94C10CBE01C4
S1130120655F7F4FCE0140960E948D020E948A0A2D
S11301308823E1F3BE01605F7F4FCE010B960E94DE
S11301403903882309F408C182E790E00E949F0CD8
S11301500E94C10C0115110511F000E010E084E8C3
S113016090E00E949F0C60E081E00E94B20C8FE856
S113017090E00E949F0C6EE080E00E94B20C8FE938
S113018090E00E949F0C6EE081E00E94B20C89EA2C
S113019090E00E949F0C0E948A0A8823E1F30E9447
S11301A0C10C0E948A0A883509F495CF0E948A0AF4
S11301B08B32A1F5BE016F5F7F4FCE0106960E9480
S11301C08D02BE016F5F7F4FCE0106960E94A4038D
S11301D0882329F08DEB90E00E949F0C0CC087EBE4
S11301E090E00E949F0C60E081E00E94B20C81EDDF
S11301F090E00E949F0C0E94C10C60E081E00E948C
S1130200B20C89EA90E00E949F0C0E948A0A88231B
S1130210E1F30E94C10C0E948A0A5DCF0E948A0AFF
S11302208D3209F042C0BE016F5F7F4FCE0106964A
S11302300E948D020E948A0A8823E1F3BE016A5F4C
S11302407F4FCE0101960E94BC068823D9F086EE2A
S113025090E00E949F0C0E948A0A8823E1F30E9486
S1130260C10C60E081E00E94B20C89EA90E00E9437
S11302709F0C0E948A0A8823E1F30E94C10C0E9409
S11302808A0A29CF8DEF90E00E949F0C60E081E004
S11302900E94B20C8AE091E00E949F0C0E948A0A9C
S11302A08823E1F30E94C10C16CF85E191E00E94FE
S11302B09F0C80E090E00E941B0EBC0180E090E067
S11302C00E94741020E030E040EA50E40E942B11B8
S11302D02AE037ED43E251E40E94D30F20E030E0FE
S11302E048EC51E40E94261188231CF00E946F0AF6
S11302F002C00E94740A0E94C10C88E291E00E942C
S11303009F0C60E081E00E94B20C89EA90E00E94B8
S11303109F0C0E948A0A8823E1F30E94C10C0E9468
S11303208A0A813309F0D7CE0E942B0A823351F016
S1130330833369F0813309F0CECE0E94C10C0E9450
S11303406A0DC9CE0E94C10C0E94C50CC4CE0E9485
S1130350C10C0E94D60DBFCE80E491E00E949F0C98
S113036060E081E00E94B20C8AE091E00E949F0C60
S11303700F5F1F4F0230110529F40E945D0A00E04F
S113038010E0A9CE0E948A0A8823E1F30E94C10CDE
S1130390A2CE0E94C10CBE016F5F7F4FCE010696B4
S11303A00E948D020E948A0A8823E1F3BE016A5FDB
S11303B07F4FCE0101960E949404882309F460C003
S11303C00115110511F000E010E082E790E00E94B1
S11303D09F0C0E94C10C85E191E00E949F0C80E07B
S11303E090E00E941B0EBC0180E090E00E9474101B
S11303F020E030E040EA50E40E942B112AE037ED7F
S113040043E251E40E94D30F20E030E048EC51E491
S11304100E94261188231CF00E946F0A02C00E94C9
S1130420740A0E94C10C88E291E00E949F0C60E073
S113043081E00E94B20C89EA90E00E949F0C0E9425
S11304408A0A8823E1F30E94C10C0E948A0A883533
S113045009F441CE0E948A0A813309F03CCE0E94FD
S1130460460A813319F0823331F035CE0E94C10C33
S11304700E946A0D30CE0E94C10C0E94C50C2BCE86
S113048086E591E00E949F0C60E081E00E94B20C3E
S11304908AE091E00E949F0C0F5F1F4F023011050C
S11304A029F40E945D0A00E010E015CE0E948A0A39
S11304B08823E1F30E94C10C0ECE86E691E00E94EF
S11304C09F0C60E081E00E94B20CBE016F5F7F4F21
S11304D0CE0106960E948D02BE016F5F7F4FCE0152
S11304E006960E94E802882309F4F5CD8DEB90E08E
S11304F00E949F0C0E94C10C60E081E00E94B20C3B
S113050089EA90E00E949F0C0E948A0A8823E1F302
S11305100E94C10C0E948A0ADECDEF92FF920F93D3
S11305201F93CF93DF937C018B018AE891E00E94B3
S11305309F0C0E948A0A8823E1F30E948A0A882376
S1130540E1F30E94C10CC0E0D0E012C00E948A0A0C
S1130550F701EC0FFD1F80838AE20E94470B0E9483
S11305608A0A8111FCCF0E948A0A8823E1F321962A
S1130570C530D1055CF30E94C10C89E991E00E9469
S11305809F0C0E948A0A8823E1F30E94C10CC0E0F8
S1130590D0E012C00E948A0AF801EC0FFD1F80838C
S11305A08AE20E94470B0E948A0A8111FCCF0E94B2
S11305B08A0A8823E1F32196C530D1055CF30E94B1
S11305C0C10CDF91CF911F910F91FF90EF9008958F
S11305D00F931F93CF93DF938C01EB01FC01608198
S11305E08FE190E00E94020FF801618180E290E0C7
S11305F00E94020FF801628181E290E00E94020FE2
S1130600F801638182E290E00E94020FF8016481A4
S113061083E290E00E94020F688184E290E00E94ED
S1130620020F698185E290E00E94020F6A8186E2EE
S113063090E00E94020F6B8187E290E00E94020F1B
S11306406C8188E290E00E94020F65E089E290E00C
S11306500E94020F80915602909157020196909346
S113066057028093560281E0DF91CF911F910F9141
S113067008950F931F93CF93DF938C01EB018FE1C8
S113068090E00E94F90E9881891346C080E290E0C0
S11306900E94F90E9981891341C081E290E00E9481
S11306A0F90E9A8189133CC082E290E00E94F90E0F
S11306B09B81891337C083E290E00E94F90E9C81EC
S11306C0891332C084E290E00E94F90EF80190810F
S11306D089132CC085E290E00E94F90EF801918103
S11306E0891326C086E290E00E94F90EF8019281F7
S11306F0891320C087E290E00E94F90EF8019381EB
S113070089131AC088E290E00E94F90EF8019481DE
S1130710891314C081E013C080E011C080E00FC0D1
S113072080E00DC080E00BC080E009C080E007C01D
S113073080E005C080E003C080E001C080E0DF917C
S1130740CF911F910F9108950F931F93CF93DF9330
S11307508C01EB01809154029091550281309105F6
S113076009F44EC08230910509F491C0892B09F037
S1130770D5C0F801608180E090E00E94020FF8018A
S1130780618181E090E00E94020FF801628182E0C1
S113079090E00E94020FF801638183E090E00E94E0
S11307A0020FF801648184E090E00E94020F6881E6
S11307B085E090E00E94020F698186E090E00E944B
S11307C0020F6A8187E090E00E94020F6B8188E04B
S11307D090E00E94020F6C8189E090E00E94020F79
S11307E061E08EE190E00E94020F809154029091AA
S11307F055020196909355028093540281E08FC074
S1130800F80160818AE090E00E94020FF8016181A2
S11308108BE090E00E94020FF80162818CE090E08E
S11308200E94020FF80163818DE090E00E94020FA4
S1130830F80164818EE090E00E94020F68818FE0ED
S113084090E00E94020F698180E190E00E94020F13
S11308506A8181E190E00E94020F6B8182E190E065
S11308600E94020F6C8183E190E00E94020F62E01B
S11308708EE190E00E94020F809154029091550203
S11308800196909355028093540281E048C0F80188
S1130890608184E190E00E94020FF801618185E1AA
S11308A090E00E94020FF801628186E190E00E94CC
S11308B0020FF801638187E190E00E94020FF801C2
S11308C0648188E190E00E94020F688189E190E0F0
S11308D00E94020F69818AE190E00E94020F6A81FE
S11308E08BE190E00E94020F6B818CE190E00E940A
S11308F0020F6C818DE190E00E94020F63E08EE1B3
S113090090E00E94020F809154029091550201964A
S1130910909355028093540281E001C080E0DF91FE
S1130920CF911F910F9108950F931F93CF93DF934E
S11309308C01EB0180915402909155028230910513
S113094009F454C08330910509F4E9C0019709F012
S1130950CBC180E090E00E94F90E98818913C6C152
S113096081E090E00E94F90E99818913C1C182E06F
S113097090E00E94F90E9A818913BCC183E090E053
S11309800E94F90E9B818913B7C184E090E00E9414
S1130990F90E9C818913B2C185E090E00E94F90EA2
S11309A0F80190818913ACC186E090E00E94F90EB1
S11309B0F80191818913A6C187E090E00E94F90EA5
S11309C0F80192818913A0C188E090E00E94F90E99
S11309D0F801938189139AC189E090E00E94F90E8D
S11309E0F8019481891394C181E0C1C180E090E051
S11309F00E94F90E9881891345C081E090E00E941D
S1130A00F90E998189133EC082E090E00E94F90EAC
S1130A109A81891337C083E090E00E94F90E9B818C
S1130A20891330C084E090E00E94F90E9C81891300
S1130A3029C085E090E00E94F90EF80190818913A5
S1130A4021C086E090E00E94F90EF801918189139B
S1130A5019C087E090E00E94F90EF8019281891391
S1130A6011C088E090E00E94F90EF8019381891387
S1130A7009C089E090E00E94F90EF8019481891779
S1130A8009F448C18AE090E00E94F90E9881891324
S1130A9043C18BE090E00E94F90E998189133EC115
S1130AA08CE090E00E94F90E9A81891339C18DE09F
S1130AB090E00E94F90E9B81891334C18EE090E08E
S1130AC00E94F90E9C8189132FC18FE090E00E944F
S1130AD0F90EF8019081891329C180E190E00E9408
S1130AE0F90EF8019181891323C181E190E00E94FC
S1130AF0F90EF801928189131DC182E190E00E94F0
S1130B00F90EF8019381891317C183E190E00E94E3
S1130B10F90EF8019481891311C181E028C180E0A4
S1130B2090E00E94F90E9881891345C081E090E01D
S1130B300E94F90E998189133EC082E090E00E94E0
S1130B40F90E9A81891337C083E090E00E94F90E70
S1130B509B81891330C084E090E00E94F90E9C814F
S1130B60891329C085E090E00E94F90EF801908174
S1130B70891321C086E090E00E94F90EF80191816A
S1130B80891319C087E090E00E94F90EF801928160
S1130B90891311C088E090E00E94F90EF801938156
S1130BA0891309C089E090E00E94F90EF80194814C
S1130BB0891709F4C5C08AE090E00E94F90E988173
S1130BC0891345C08BE090E00E94F90E9981891346
S1130BD03EC08CE090E00E94F90E9A81891337C0E0
S1130BE08DE090E00E94F90E9B81891330C08EE065
S1130BF090E00E94F90E9C81891329C08FE090E057
S1130C000E94F90EF8019081891321C080E190E0DF
S1130C100E94F90EF8019181891319C081E190E0D5
S1130C200E94F90EF8019281891311C082E190E0CB
S1130C300E94F90EF8019381891309C083E190E0C1
S1130C400E94F90EF8019481891709F47BC084E1AC
S1130C5090E00E94F90E9881891376C085E190E0B6
S1130C600E94F90E9981891371C086E190E00E9477
S1130C70F90E9A8189136CC087E190E00E94F90E05
S1130C809B81891367C088E190E00E94F90E9C81E2
S1130C90891362C089E190E00E94F90EF801908105
S1130CA089135CC08AE190E00E94F90EF8019181F9
S1130CB0891356C08BE190E00E94F90EF8019281ED
S1130CC0891350C08CE190E00E94F90EF8019381E1
S1130CD089134AC08DE190E00E94F90EF8019481D5
S1130CE0891344C081E043C080E041C080E03FC03C
S1130CF080E03DC080E03BC080E039C080E037C088
S1130D0080E035C080E033C080E031C080E02FC097
S1130D1080E02DC081E02BC080E029C080E027C0A6
S1130D2080E025C080E023C080E021C080E01FC0B7
S1130D3080E01DC080E01BC080E019C080E017C0C7
S1130D4081E015C081E013C080E011C080E00FC0D5
S1130D5080E00DC080E00BC080E009C080E007C0E7
S1130D6080E005C080E003C080E001C080E0DF9146
S1130D70CF911F910F9108950F931F93CF93DF93FA
S1130D808C01EB01809154029091550282309105BF
S1130D9009F48BC08330910509F48FC1019709F0E0
S1130DA018C380E090E00E94F90E9881891313C360
S1130DB081E090E00E94F90E998189130EC382E0CC
S1130DC090E00E94F90E9A81891309C383E090E0B0
S1130DD00E94F90E9B81891304C384E090E00E9471
S1130DE0F90E9C818913FFC285E090E00E94F90E00
S1130DF0F80190818913F9C286E090E00E94F90E0F
S1130E00F80191818913F3C287E090E00E94F90E02
S1130E10F80192818913EDC288E090E00E94F90EF6
S1130E20F80193818913E7C289E090E00E94F90EEA
S1130E30F80194818913E1C261E080E090E00E94AE
S1130E40020F61E081E090E00E94020F61E082E025
S1130E5090E00E94020F61E083E090E00E94020FA4
S1130E6061E084E090E00E94020F61E085E090E0A0
S1130E700E94020F61E086E090E00E94020F61E0B0
S1130E8087E090E00E94020F61E088E090E00E9419
S1130E90020F61E089E090E00E94020F60E08EE1C1
S1130EA090E00E94020F81E0D1C280E090E00E94B5
S1130EB0F90E988189137DC081E090E00E94F90EBB
S1130EC09981891376C082E090E00E94F90E9A819C
S1130ED089136FC083E090E00E94F90E9B8189130F
S1130EE068C084E090E00E94F90E9C81891361C07F
S1130EF085E090E00E94F90EF8019081891359C0B1
S1130F0086E090E00E94F90EF8019181891351C0A6
S1130F1087E090E00E94F90EF8019281891349C09C
S1130F2088E090E00E94F90EF8019381891341C092
S1130F3089E090E00E94F90EF8019481891339C088
S1130F4061E080E090E00E94020F61E081E090E0C7
S1130F500E94020F61E082E090E00E94020F61E0D3
S1130F6083E090E00E94020F61E084E090E00E9440
S1130F70020F61E085E090E00E94020F61E086E0EC
S1130F8090E00E94020F61E087E090E00E94020F6F
S1130F9061E088E090E00E94020F61E089E090E067
S1130FA00E94020F61E08EE190E00E94020F81E056
S1130FB04DC28AE090E00E94F90E988189131FC205
S1130FC08BE090E00E94F90E998189131AC28CE09B
S1130FD090E00E94F90E9A81891315C28DE090E089
S1130FE00E94F90E9B81891310C28EE090E00E944A
S1130FF0F90E9C8189130BC28FE090E00E94F90ED8
S1131000F8019081891305C280E190E00E94F90EF5
S1131010F80191818913FFC181E190E00E94F90EEA
S1131020F80192818913F9C182E190E00E94F90EDE
S1131030F80193818913F3C183E190E00E94F90ED2
S1131040F80194818913EDC161E08AE090E00E9487
S1131050020F61E08BE090E00E94020F61E08CE0FF
S113106090E00E94020F61E08DE090E00E94020F88
S113107061E08EE090E00E94020F61E08FE090E07A
S11310800E94020F61E080E190E00E94020F61E0A3
S113109081E190E00E94020F61E082E190E00E9411
S11310A0020F61E083E190E00E94020F61E08EE1B3
S11310B090E00E94020F81E0C9C180E090E00E94AC
S11310C0F90E988189137DC081E090E00E94F90EA9
S11310D09981891376C082E090E00E94F90E9A818A
S11310E089136FC083E090E00E94F90E9B818913FD
S11310F068C084E090E00E94F90E9C81891361C06D
S113110085E090E00E94F90EF8019081891359C09E
S113111086E090E00E94F90EF8019181891351C094
S113112087E090E00E94F90EF8019281891349C08A
S113113088E090E00E94F90EF8019381891341C080
S113114089E090E00E94F90EF8019481891339C076
S113115061E080E090E00E94020F61E081E090E0B5
S11311600E94020F61E082E090E00E94020F61E0C1
S113117083E090E00E94020F61E084E090E00E942E
S1131180020F61E085E090E00E94020F61E086E0DA
S113119090E00E94020F61E087E090E00E94020F5D
S11311A061E088E090E00E94020F61E089E090E055
S11311B00E94020F62E08EE190E00E94020F81E043
S11311C045C18AE090E00E94F90E988189137DC0A0
S11311D08BE090E00E94F90E9981891376C08CE02F
S11311E090E00E94F90E9A8189136FC08DE090E01F
S11311F00E94F90E9B81891368C08EE090E00E94E2
S1131200F90E9C81891361C08FE090E00E94F90E71
S1131210F8019081891359C080E190E00E94F90E91
S1131220F8019181891351C081E190E00E94F90E87
S1131230F8019281891349C082E190E00E94F90E7D
S1131240F8019381891341C083E190E00E94F90E73
S1131250F8019481891339C061E08AE090E00E942A
S1131260020F61E08BE090E00E94020F61E08CE0ED
S113127090E00E94020F61E08DE090E00E94020F76
S113128061E08EE090E00E94020F61E08FE090E068
S11312900E94020F61E080E190E00E94020F61E091
S11312A081E190E00E94020F61E082E190E00E94FF
S11312B0020F61E083E190E00E94020F62E08EE1A0
S11312C090E00E94020F81E0C1C084E190E00E949E
S11312D0F90E98818913A7C085E190E00E94F90E68
S11312E099818913A2C086E190E00E94F90E9A8147
S11312F089139DC087E190E00E94F90E9B818913B8
S113130098C088E190E00E94F90E9C81891393C0F3
S113131089E190E00E94F90EF801908189138DC053
S11313208AE190E00E94F90EF8019181891387C047
S11313308BE190E00E94F90EF8019281891381C03B
S11313408CE190E00E94F90EF801938189137BC02F
S11313508DE190E00E94F90EF8019481891375C023
S113136061E084E190E00E94020F61E085E190E099
S11313700E94020F61E086E190E00E94020F61E0AA
S113138087E190E00E94020F61E088E190E00E9412
S1131390020F61E089E190E00E94020F61E08AE1BE
S11313A090E00E94020F61E08BE190E00E94020F46
S11313B061E08CE190E00E94020F61E08DE190E039
S11313C00E94020F62E08EE190E00E94020F81E031
S11313D03DC080E03BC080E039C080E037C080E0A1
S11313E035C080E033C080E031C080E02FC080E0B1
S11313F02DC080E02BC080E029C080E027C080E0C1
S113140025C080E023C080E021C080E01FC080E0D0
S11314101DC080E01BC080E019C080E017C080E0E0
S113142015C080E013C080E011C080E00FC080E0F0
S11314300DC080E00BC080E009C080E007C080E000
S113144005C080E003C080E001C080E0DF91CF915F
S11314501F910F91089588EA91E00E949F0C60E02B
S113146081E00E94B20C88EB91E00E949F0C6FE037
S113147080E00E94B20C8DEC91E00E949F0C0E94CF
S11314808A0A8823E1F30E948A0A089588EA91E08F
S11314900E949F0C60E081E00E94B20C88EB91E016
S11314A00E949F0C6FE080E00E94B20C0E948A0AA6
S11314B08823E1F30E948A0A089561E082E10E9490
S11314C0370E2FE38DE093E0215080409040E1F708
S11314D000C0000060E082E10E94370E089561E0E0
S11314E087E10E94370E089560E087E10E94370E7D
S11314F0089561E083E10E94370E61E084E10E9477
S1131500370E61E085E10E94370E61E086E10E94BA
S1131510370E089560E08CE00E94370E61E08DE0A4
S11315200E94370E61E08EE00E94370E61E08FE08A
S11315300E94370E83E10E94C00E882309F487C0FD
S113154084E10E94C00E882309F483C085E10E94CF
S1131550C00E882309F47FC086E10E94C00E882350
S113156009F47BC061E08CE00E94370E60E08DE0FE
S11315700E94370E61E08EE00E94370E61E08FE03A
S11315800E94370E83E10E94C00E882309F467C0CD
S113159084E10E94C00E882309F463C085E10E949F
S11315A0C00E882309F45FC086E10E94C00E882320
S11315B009F45BC061E08CE00E94370E61E08DE0CD
S11315C00E94370E60E08EE00E94370E61E08FE0EB
S11315D00E94370E83E10E94C00E882309F447C09D
S11315E084E10E94C00E882309F443C085E10E946F
S11315F0C00E882309F43FC086E10E94C00E8823F0
S1131600E1F161E08CE00E94370E61E08DE00E9420
S1131610370E61E08EE00E94370E60E08FE00E949A
S1131620370E83E10E94C00E882349F184E10E94B1
S1131630C00E882331F185E10E94C00E882319F180
S113164086E10E94C00E811120C08BE2089587E3D9
S1131650089588E3089589E308958FE2089584E363
S1131660089585E3089586E308958AE2089581E361
S1131670089582E3089583E308958DE208958AE24C
S1131680089580E308958DE3089580E00895CF934D
S1131690C82F61E089E00E94370E60E08AE00E9472
S11316A0370EC4FF05C061E084E00E94370E04C019
S11316B060E084E00E94370EC5FF05C061E085E06C
S11316C00E94370E04C060E085E00E94370EC6FF1A
S11316D005C061E086E00E94370E04C060E086E049
S11316E00E94370ECC232CF461E087E00E94370E71
S11316F004C060E087E00E94370E61E088E00E9449
S1131700370E8FE99FE00197F1F700C0000060E019
S113171088E00E94370E8FE99FE00197F1F700C03F
S11317200000C0FF05C061E084E00E94370E04C0E1
S113173060E084E00E94370EC1FF05C061E085E0EF
S11317400E94370E04C060E085E00E94370EC2FF9D
S113175005C061E086E00E94370E04C060E086E0C8
S11317600E94370EC3FF05C061E087E00E94370E78
S113177004C060E087E00E94370E61E088E00E94C8
S1131780370E8FE99FE00197F1F700C0000060E099
S113179088E00E94370E8FE99FE00197F1F700C0BF
S11317A00000CF910895CF93C82F60E089E00E9494
S11317B0370E60E08AE00E94370EC4FF05C061E086
S11317C084E00E94370E04C060E084E00E94370E7B
S11317D0C5FF05C061E085E00E94370E04C060E0EB
S11317E085E00E94370EC6FF05C061E086E00E94D6
S11317F0370E04C060E086E00E94370ECC232CF440
S113180061E087E00E94370E04C060E087E00E9438
S1131810370E61E088E00E94370E8FE99FE0019760
S1131820F1F700C0000060E088E00E94370E8FE905
S11318309FE00197F1F700C00000C0FF05C061E020
S113184084E00E94370E04C060E084E00E94370EFA
S1131850C1FF05C061E085E00E94370E04C060E06E
S113186085E00E94370EC2FF05C061E086E00E9459
S1131870370E04C060E086E00E94370EC3FF05C047
S113188061E087E00E94370E04C060E087E00E94B8
S1131890370E61E088E00E94370E8FE99FE00197E0
S11318A0F1F700C0000060E088E00E94370E8FE985
S11318B09FE00197F1F700C00000CF9108952FE752
S11318C085EB91E0215080409040E1F700C000009A
S11318D083E30E94D30B8FE39FE10197F1F700C0EC
S11318E0000082E30E94D30B8FE39FE10197F1F79D
S11318F000C0000088E20E94D30B8FE39FE10197B0
S1131900F1F700C000008CE00E94D30B8FE39FE14D
S11319100197F1F700C0000086E00E94D30B8FE32B
S11319209FE10197F1F700C0000081E00E94D30B12
S11319308FE39FE10197F1F700C0000008950F9332
S11319401F93CF938C01C0E003C00E94470BCF5F6D
S1131950F801EC0FF11D80818111F7CFCF911F9118
S11319600F910895882319F0813021F006C080E892
S1131970860F04C080EC860F01C080E00E94D30B68
S1131980089581E00E94D30B0895CF92DF92EF92E5
S1131990FF928FED91E00E949F0C60E081E00E9435
S11319A0B20C80EF91E00E949F0C6FE081E00E94F6
S11319B0B20C81E092E00E949F0C0E948A0A882364
S11319C0E1F30E948A0A8133D1F57FC0C701B601D1
S11319D00E944510862F0E945F0F0E948A0A882366
S11319E071F18FE19EE40197F1F700C0000020E05F
S11319F030E040E05FE360915802709159028091B9
S1131A005A0290915B020E94620F60935802709395
S1131A10590280935A0290935B02C0905802D0906E
S1131A205902E0905A02F0905B0220E030E048EC6A
S1131A3052E4C701B6010E94CE0F88233CF20E94F3
S1131A408A0A8B3251F33CC0C701B6010E9445108B
S1131A50862F0E945F0F0E948A0A882389F19FE5DE
S1131A602AEE80E0915020408040E1F700C0000061
S1131A7020E030E040EA50E460915802709159024D
S1131A8080915A0290915B020E94610F6093580208
S1131A907093590280935A0290935B02C09058024B
S1131AA0D0905902E0905A02F0905B0220E030E0BE
S1131AB040E85FE3C701B6010E942611181624F21C
S1131AC00E948A0A8D3251F378CFFF90EF90DF9015
S1131AD0CF9008958AE092E00E949F0C60E081E03C
S1131AE00E94B20C83E292E00E949F0C0E948A0A38
S1131AF08823E1F30E948A0A833349F128F481336D
S1131B0041F08233A9F00895843381F18533E9F1FA
S1131B10089588E10E94C00E882329F060E088E1DE
S1131B200E94370E40C061E088E10E94370E3BC03E
S1131B3089E10E94C00E882329F060E089E10E94B7
S1131B40370E31C061E089E10E94370E2CC08AE172
S1131B500E94C00E882329F060E08AE10E94370EBB
S1131B6022C061E08AE10E94370E1DC08CE10E9410
S1131B70C00E882329F060E08CE10E94370E13C068
S1131B8061E08CE10E94370E0EC08DE10E94C00E10
S1131B90882329F060E08DE10E94370E04C061E0E3
S1131BA08DE10E94370E0E94C10C94CF82E392E033
S1131BB00E949F0C60E081E00E94B20C82E492E0FB
S1131BC00E949F0C0E948A0A8823E1F30E948A0AD9
S1131BD0813319F0823379F0089589E190E00E940D
S1131BE0390F2FE38DE093E0215080409040E1F7DE
S1131BF000C000000DC08CE090E00E94390F2FE37C
S1131C008DE093E0215080409040E1F700C0000057
S1131C100E94C10CCBCF86B1806886B9089587B184
S1131C208F7B87B987B18F7787B987B18F7D87B964
S1131C300E940B0E089597B1907E97B997B1892BA6
S1131C4087B986B1806486B93699FECF24B185B14F
S1131C50837090E0982F8827822B089580EF8ABBA9
S1131C608FEF87BB84E884BB87EF81BB08958830FE
S1131C7000F5662381F0613009F081C04BB321E0A7
S1131C8030E0B90102C0660F771F8A95E2F7CB01F5
S1131C90842B8BBB08954BB321E030E0B90102C023
S1131CA0660F771F8A95E2F7CB01809584238BBB5F
S1131CB00895803108F58850662381F0613009F079
S1131CC05EC048B321E030E0B90102C0660F771F5F
S1131CD08A95E2F7CB01842B88BB089548B321E0B1
S1131CE030E0B90102C0660F771F8A95E2F7CB0195
S1131CF08095842388BB0895883100F5805166233C
S1131D0079F06130E1F545B321E030E0B90102C07A
S1131D10660F771F8A95E2F7CB01842B85BB089564
S1131D2045B321E030E0B90102C0660F771F8A9500
S1131D30E2F7CB018095842385BB08958032F8F4C3
S1131D408851662379F06130D1F442B321E030E068
S1131D50B90102C0660F771F8A95E2F7CB01842B85
S1131D6082BB089542B321E030E0B90102C0660F9E
S1131D70771F8A95E2F7CB018095842382BB08956F
S1131D80883058F429B330E0A90102C0559547952D
S1131D908A95E2F7CA0181700895803160F428EFD2
S1131DA0280F96B3892F90E002C0959587952A95C0
S1131DB0E2F781700895883160F420EF280F93B31F
S1131DC0892F90E002C0959587952A95E2F7817056
S1131DD00895803260F428EE280F90B3892F90E0A4
S1131DE002C0959587952A95E2F78170089580E061
S1131DF00895E199FECF9FBB8EBB8CB381608CBBF1
S1131E008DB30895E199FECF9FBB8EBB8CB38160E7
S1131E108CBB8DB3861739F06DBB8CB384608CBBDF
S1131E208CB382608CBB089585B5806485BD85B50F
S1131E30886085BD85B58F7E85BD85B5806285BD8D
S1131E4089B78F7B89BF89B78F7789BF88B7806847
S1131E5088BF88B7806888BF14BC8CE083BD85B513
S1131E608E7F85BD85B58D7F85BD85B5846085BD37
S1131E70089583BD089583B7806483BF83B7886062
S1131E8083BF83B78E7F83BF83B7826083BF83B7EB
S1131E908B7F83BF83B78F7E83BF83B7806283BF0B
S1131EA089B78E7F89BF89B78D7F89BF88B78160E5
S1131EB088BF88B7826088BF12BE1CBE08958CBFDD
S1131EC008955058BB27AA270E94790F0C94EC1050
S1131ED00E94DE1038F00E94E51020F039F49F3F94
S1131EE019F426F40C94DB100EF4E095E7FB0C9443
S1131EF0D510E92F0E94FD1058F3BA176207730733
S1131F008407950720F079F4A6F50C941F110EF4BC
S1131F10E0950B2EBA2FA02D0B01B90190010C01F5
S1131F20CA01A0011124FF27591B99F0593F50F40D
S1131F30503E68F11A16F040A22F232F342F442765
S1131F40585FF3CF469537952795A795F04053955D
S1131F50C9F77EF41F16BA0B620B730B840BBAF02D
S1131F609150A1F0FF0FBB1F661F771F881FC2F798
S1131F700EC0BA0F621F731F841F48F487957795AC
S1131F806795B795F7959E3F08F0B0CF9395880F66
S1131F9008F09927EE0F9795879508950E94B11040
S1131FA008F481E008950E94E70F0C94EC100E945D
S1131FB0E51058F00E94DE1040F029F45F3F29F04C
S1131FC00C94D51051110C9420110C94DB100E9428
S1131FD0FD1068F39923B1F3552391F3951B550B29
S1131FE0BB27AA2762177307840738F09F5F5F4FE8
S1131FF0220F331F441FAA1FA9F335D00E2E3AF027
S1132000E0E832D091505040E695001CCAF72BD03E
S1132010FE2F29D0660F771F881FBB1F261737078F
S11320204807AB07B0E809F0BB0B802DBF01FF27C1
S113203093585F4F3AF09E3F510578F00C94D510B9
S11320400C9420115F3FE4F3983ED4F38695779582
S11320506795B795F7959F5FC9F7880F911D96957A
S1132060879597F90895E1E0660F771F881FBB1FD6
S1132070621773078407BA0720F0621B730B840B83
S1132080BA0BEE1F88F7E09508950E94051188F0B9
S11320909F5798F0B92F9927B751B0F0E1F0660F28
S11320A0771F881F991F1AF0BA95C9F714C0B13069
S11320B091F00E941F11B1E008950C941F11672F35
S11320C0782F8827B85F39F0B93FCCF38695779598
S11320D06795B395D9F73EF4909580957095619581
S11320E07F4F8F4F9F4F0895E89409C097FB3EF4AC
S11320F090958095709561957F4F8F4F9F4F992351
S1132100A9F0F92F96E9BB279395F69587957795CE
S11321106795B795F111F8CFFAF4BB0F11F460FF8E
S11321201BC06F5F7F4F8F4F9F4F16C0882311F0E6
S113213096E911C0772321F09EE8872F762F05C0FA
S1132140662371F096E8862F70E060E02AF09A9595
S1132150660F771F881FDAF7880F9695879597F98A
S11321600895990F0008550FAA0BE0E8FEEF161624
S11321701706E807F907C0F012161306E407F50777
S113218098F0621B730B840B950B39F40A2661F0EB
S1132190232B242B252B21F408950A2609F4A1408E
S11321A0A6958FEF811D811D089597F99F6780E89B
S11321B070E060E008959FEF80EC089500240A9495
S11321C01616170618060906089500240A9412160E
S11321D01306140605060895092E0394000C11F441
S11321E0882352F0BB0F40F4BF2B11F460FF04C0EE
S11321F06F5F7F4F8F4F9F4F089557FD9058440F47
S1132200551F59F05F3F71F04795880F97FB991F51
S113221061F09F3F79F0879508951216130614060E
S1132220551FF2CF4695F1DF08C01616170618069B
S1132230991FF1CF86957105610508940895E89476
S1132240BB2766277727CB0197F908950E94B11021
S113225008F48FEF08950E943E110C94EC100E9434
S1132260DE1038F00E94E51020F0952311F00C9454
S1132270D5100C94DB1011240C9420110E94FD1035
S113228070F3959FC1F3950F50E0551F629FF001C5
S1132290729FBB27F00DB11D639FAA27F00DB11DDE
S11322A0AA1F649F6627B00DA11D661F829F222767
S11322B0B00DA11D621F739FB00DA11D621F839FEE
S11322C0A00D611D221F749F3327A00D611D231FC4
S11322D0849F600D211D822F762F6A2F11249F5712
S11322E050409AF0F1F088234AF0EE0FFF1FBB1F15
S11322F0661F771F881F91505040A9F79E3F5105D4
S113230080F00C94D5100C9420115F3FE4F3983EB8
S1132310D4F3869577956795B795F795E7959F5F7D
S1132320C1F7FE2B880F911D9695879597F908950F
S1072330F894FFCF4B
S113233461646D696E203A2B00757365723A202DC1
S113234420007375636365737366756C206C6F67C3
S1132354696E200053797374656D203A31200072DC
S113236465676973746572696E673A2B202000642B
S1132374656C6574653A2D2000466F722065786932
S113238474203A205820007761736E742061646469
S11323946564207375636365737366756C6C792007
S11323A400646174616261736520697320636F6D95
S11323B4706C657465002064656C65746564207371
S11323C475636365737366756C6C792000646F6EF2
S11323D474206578697374202000747279206167AD
S11323E461696E200077656C636F6D6520746F207E
S11323F473797374656D2000666F722053797374F6
S1132404656D20436F6E74726F6C65203A312000E1
S113241477726F6E672061646D696E207061737387
S1132424776F7264200077726F6E672070617373C4
S1132434776F726420002046697273742074696D26
S11324446520203F202E20526567697374657220CD
S113245461732061646D696E2000656E7465722019
S1132464757365726E616D6500656E746572207056
S1132474617373776F7264004C656420436F6E7488
S1132484726F6C653A31200044696D6D6572204346
S11324946F6E74726F6C65203A32202000446F6F43
S11324A47220436F6E74726F6C65203A3320006936
S11324B46E6320696E74656E736974793A202B00B7
S11324C464656320696E74696E736974793A202D46
S11324D400457869743A20312000546F67676C654D
S11324E4206C6564206E6F203A312C322C332C34EA
S11324F42C3500666F722065786974203A20582060
S11325042000446F6F72204F70656E203A20312092
S11325142000446F6F7220636C6F7365203A20321D
S1072524202000006F
S9030000FC
